:020000040800F2
:1000000000000220FD4500084D4600084D4600084E
:100010004D4600084D4600084D460008000000000F
:100020000000000000000000000000004D46000835
:100030004D460008000000004D4600082D3C000819
:100040004D4600084D4600084D4600084D46000844
:100050004D4600084D4600084D4600084D46000834
:100060004D4600084D4600084D4600084D46000824
:100070004D4600084D4600084D4600084D46000814
:100080004D4600084D4600084D4600084D46000804
:100090004D4600084D4600084D4600084D460008F4
:1000A0004D4600084D4600084D4600084D460008E4
:1000B0004D4600084D4600084D4600084D460008D4
:1000C0004D4600084D4600084D4600084D460008C4
:1000D0004D4600084D4600084D4600084D460008B4
:1000E0004D4600084D4600084D4600084D460008A4
:1000F0004D4600084D4600084D4600084D46000894
:100100004D4600084D4600084D4600084D46000883
:100110004D4600084D460008393C00084D46000891
:100120004D4600084D4600084D4600084D46000863
:100130004D4600084D4600084D4600084D46000853
:100140004D4600084D4600084D4600084D46000843
:100150004D4600084D4600084D4600084D46000833
:100160004D4600084D4600084D4600084D46000823
:100170004D4600084D4600084D46000800000000AE
:080180004D4600084D46000841
:1001900010B5054C237833B9044B13B10448AFF3C1
:1001A00000800123237010BD1C020020000000000D
:1001B000146E000808B5034B1BB103490348AFF3A5
:1001C000008008BD0000000020020020146E00081E
:1001D00081F0004102E000BF83F0004330B54FEAF8
:1001E00041044FEA430594EA050F08BF90EA020F65
:1001F0001FBF54EA000C55EA020C7FEA645C7FEAF8
:10020000655C00F0E2804FEA5454D4EB5555B8BF1A
:100210006D420CDD2C4480EA020281EA030382EA8B
:10022000000083EA010180EA020281EA0303362D1D
:1002300088BF30BD11F0004F4FEA01314FF4801CF0
:100240004CEA113102D0404261EB410113F0004F02
:100250004FEA03334CEA133302D0524263EB4303B9
:1002600094EA050F00F0A780A4F10104D5F1200E57
:100270000DDB02FA0EFC22FA05F2801841F10001B2
:1002800003FA0EF2801843FA05F359410EE0A5F186
:1002900020050EF1200E012A03FA0EFC28BF4CF0B7
:1002A000020C43FA05F3C01851EBE37101F000456D
:1002B00007D54FF0000EDCF1000C7EEB00006EEB7A
:1002C0000101B1F5801F1BD3B1F5001F0CD3490804
:1002D0005FEA30004FEA3C0C04F101044FEA44525B
:1002E00012F5800F80F09A80BCF1004F08BF5FEAE2
:1002F000500C50F1000041EB045141EA050130BDC2
:100300005FEA4C0C404141EB010111F4801FA4F164
:100310000104E9D191F0000F04BF01460020B1FAB9
:1003200081F308BF2033A3F10B03B3F120020CDAF1
:100330000C3208DD02F1140CC2F10C0201FA0CF0CF
:1003400021FA02F10CE002F11402D8BFC2F1200C34
:1003500001FA02F120FA0CFCDCBF41EA0C019040EA
:10036000E41AA2BF01EB0451294330BD6FEA040433
:100370001F3C1CDA0C340EDC04F11404C4F120021E
:1003800020FA04F001FA02F340EA030021FA04F330
:1003900045EA030130BDC4F10C04C4F1200220FA87
:1003A00002F001FA04F340EA0300294630BD21FAC5
:1003B00004F0294630BD94F0000F83F4801306BF8B
:1003C00081F480110134013D4EE77FEA645C18BF7F
:1003D0007FEA655C29D094EA050F08BF90EA020F16
:1003E00005D054EA000C04BF1946104630BD91EA0E
:1003F000030F1EBF0021002030BD5FEA545C05D111
:100400004000494128BF41F0004130BD14F580044F
:100410003CBF01F5801130BD01F0004545F0FE41C3
:1004200041F470014FF0000030BD7FEA645C1ABFF8
:10043000194610467FEA655C1CBF0B46024650EA2F
:10044000013406BF52EA033591EA030F41F400215B
:1004500030BD00BF90F0000F04BF0021704730B5E1
:100460004FF4806404F132044FF000054FF00001B6
:1004700050E700BF90F0000F04BF0021704730B577
:100480004FF4806404F1320410F0004548BF40424C
:100490004FF000013EE700BF42004FEAE2014FEAA1
:1004A00031014FEA02701FBF12F07F4393F07F4F7C
:1004B00081F06051704732F07F4208BF704793F07F
:1004C0007F4F04BF41F40021704730B54FF4607492
:1004D00001F0004521F000411CE700BF50EA010295
:1004E00008BF704730B54FF000050AE050EA01023E
:1004F00008BF704730B511F0004502D5404261EBAE
:1005000041014FF4806404F132045FEA915C3FF4EE
:10051000D8AE4FF003025FEADC0C18BF03325FEA8B
:10052000DC0C18BF033202EBDC02C2F1200300FA3C
:1005300003FC20FA02F001FA03FE40EA0E0021FA61
:1005400002F11444BDE600BF70B54FF0FF0C4CF44F
:10055000E06C1CEA11541DBF1CEA135594EA0C0F01
:1005600095EA0C0F00F0DEF82C4481EA030621EA3C
:100570004C5123EA4C5350EA013518BF52EA033577
:1005800041F4801143F4801338D0A0FB02CE4FF029
:100590000005E1FB02E506F00042E0FB03E54FF059
:1005A0000006E1FB03569CF0000F18BF4EF0010E51
:1005B000A4F1FF04B6F5007F64F5407404D25FEA4D
:1005C0004E0E6D4146EB060642EAC62141EA555100
:1005D0004FEAC52040EA5E504FEACE2EB4F1FD0C42
:1005E00088BFBCF5E06F1ED8BEF1004F08BF5FEAC0
:1005F000500E50F1000041EB045170BD06F0004672
:1006000046EA010140EA020081EA0301B4EB5C041E
:10061000C2BFD4EB0C0541EA045170BD41F4801116
:100620004FF0000E013C00F3AB8014F1360FDEBF3B
:10063000002001F0004170BDC4F10004203C35DA17
:100640000C341BDC04F11404C4F1200500FA05F39A
:1006500020FA04F001FA05F240EA020001F000423B
:1006600021F0004110EBD37021FA04F642EB0601B1
:100670005EEA430E08BF20EAD37070BDC4F10C04DB
:10068000C4F1200500FA04F320FA05F001FA04F29F
:1006900040EA020001F0004110EBD37041F100018B
:1006A0005EEA430E08BF20EAD37070BDC4F1200596
:1006B00000FA05F24EEA020E20FA04F301FA05F2FE
:1006C00043EA020321FA04F001F0004121FA04F2A6
:1006D00020EA020000EBD3705EEA430E08BF20EA76
:1006E000D37070BD94F0000F0FD101F000464000B0
:1006F00041EB010111F4801F08BF013CF7D041EA32
:10070000060195F0000F18BF704703F00046520035
:1007100043EB030313F4801F08BF013DF7D043EA06
:100720000603704794EA0C0F0CEA135518BF95EABC
:100730000C0F0CD050EA410618BF52EA4306D1D143
:1007400081EA030101F000414FF0000070BD50EA62
:10075000410606BF1046194652EA430619D094EAEC
:100760000C0F02D150EA013613D195EA0C0F05D1D6
:1007700052EA03361CBF104619460AD181EA03012A
:1007800001F0004141F0FE4141F470014FF00000E2
:1007900070BD41F0FE4141F4780170BD70B54FF07D
:1007A000FF0C4CF4E06C1CEA11541DBF1CEA1355FD
:1007B00094EA0C0F95EA0C0F00F0A7F8A4EB0504DF
:1007C00081EA030E52EA03354FEA013100F08880D6
:1007D0004FEA03334FF0805545EA131343EA12639F
:1007E0004FEA022245EA111545EA10654FEA002654
:1007F0000EF000419D4208BF964244F1FD0404F50D
:10080000407402D25B084FEA3202B61A65EB030568
:100810005B084FEA32024FF480104FF4002CB6EB25
:10082000020E75EB030E22BFB61A754640EA0C00A5
:100830005B084FEA3202B6EB020E75EB030E22BFE5
:10084000B61A754640EA5C005B084FEA3202B6EB26
:10085000020E75EB030E22BFB61A754640EA9C00E5
:100860005B084FEA3202B6EB020E75EB030E22BFB5
:10087000B61A754640EADC0055EA060E18D04FEA73
:10088000051545EA16754FEA06164FEAC30343EA13
:1008900052734FEAC2025FEA1C1CC0D111F4801FE0
:1008A0000BD141EA00014FF000004FF0004CB6E7D9
:1008B00011F4801F04BF01430020B4F1FD0C88BF78
:1008C000BCF5E06F3FF6AFAEB5EB030C04BFB6EB83
:1008D000020C5FEA500C50F1000041EB045170BD76
:1008E0000EF0004E4EEA113114EB5C04C2BFD4EBA3
:1008F0000C0541EA045170BD41F480114FF0000E27
:10090000013C90E645EA060E8DE60CEA135594EAA2
:100910000C0F08BF95EA0C0F3FF43BAF94EA0C0FA5
:100920000AD150EA01347FF434AF95EA0C0F7FF41A
:1009300025AF104619462CE795EA0C0F06D152EA6E
:1009400003353FF4FDAE1046194622E750EA410652
:1009500018BF52EA43067FF4C5AE50EA41047FF463
:100960000DAF52EA43057FF4EBAE12E74FEA4102C6
:10097000B2F1E04324BFB3F5001CDCF1FE5C0DD9FD
:1009800001F0004C4FEAC0024CEA5070B2F1004F47
:1009900040EB830008BF20F00100704711F0804F4A
:1009A00021D113F13872BCBF01F00040704741F40F
:1009B00080114FEA5252C2F11802C2F1200C10FA13
:1009C0000CF320FA02F018BF40F001004FEAC123F7
:1009D0004FEAD32303FA0CFC40EA0C0023FA02F39B
:1009E0004FEA4303CCE77FEA625307D150EA013371
:1009F0001EBF4FF0FE4040F44000704701F0004041
:100A000040F0FE4040F40000704700BF53B94AB9BF
:100A1000002908BF00281CBF4FF0FF314FF0FF3006
:100A200000F072B9ADF1080C6DE904CE00F006F8E3
:100A3000DDF804E0DDE9022304B070472DE9F0475A
:100A4000089E04468846002B4BD18A42154667D93A
:100A5000B2FA82F24AB1C2F1200701FA02F320FA97
:100A600007F7954047EA030894404FEA154E230CD8
:100A7000B8FBFEF71FFA85FC0EFB178843EA084314
:100A800007FB0CF1994209D9EB1807F1FF3080F010
:100A90001B81994240F21881023F2B445B1AA4B299
:100AA000B3FBFEF00EFB103344EA034400FB0CFCE6
:100AB000A44509D92C1900F1FF3380F00781A44522
:100AC00040F2048102382C4440EA0740A4EB0C04B5
:100AD00000271EB1D4400023C6E900433946BDE8D3
:100AE000F0878B4209D9002E00F0EB800027C6E981
:100AF000000138463946BDE8F087B3FA83F7002F86
:100B000047D18B4202D3824200F2FA80841A61EB11
:100B1000030301209846002EE0D0C6E90048DDE737
:100B200002B9FFDEB2FA82F2002A40F08F80491B40
:100B30004FEA154E1FFA85F80127B1FBFEFC230C86
:100B40000EFB1C1143EA014308FB0CF1994207D943
:100B5000EB180CF1FF3002D2994200F2CD808446AE
:100B6000591AA3B2B1FBFEF00EFB101443EA044481
:100B700008FB00F8A04507D92C1900F1FF3302D279
:100B8000A04500F2B6801846A4EB080440EA0C40E9
:100B90009FE7C7F1200CBB4022FA0CFE4EEA030E81
:100BA00001FA07F420FA0CF521FA0CF34FEA1E487B
:100BB0002543B3FBF8F92C0C08FB19331FFA8EFA06
:100BC00044EA034309FB0AF49C4202FA07F200FAE2
:100BD00007F10BD91EEB030309F1FF3080F087808A
:100BE0009C4240F28480A9F1020973441B1BADB200
:100BF000B3FBF8F008FB103345EA034400FB0AFAA4
:100C0000A24508D91EEB040400F1FF336BD2A245C4
:100C100069D90238744440EA0940A0FB0289A4EB78
:100C20000A044C45C2464B4654D351D0002E69D0DD
:100C3000B1EB0A0564EB030404FA0CFCFD40FC4034
:100C40004CEA0505C6E90054002747E7C2F1200336
:100C500020FA03F7954001FA02F021FA03F34FEA74
:100C6000154E3843010CB3FBFEF71FFA85F80EFB57
:100C7000173341EA034107FB08F38B4204FA02F4FD
:100C800007D9691807F1FF3C2FD28B422DD9023FBB
:100C90002944CB1A81B2B3FBFEF00EFB103341EABC
:100CA000034100FB08F38B4207D9691800F1FF3CB0
:100CB00017D28B4215D902382944C91A40EA07478E
:100CC0003BE73746304609E70746E7E61846FBE6C6
:100CD0004145ABD2B8EB020A69EB0E02013813466C
:100CE000A4E76046E9E7184695E76746D1E78146FD
:100CF0007CE702382C4447E7ACF1020C2B442FE789
:100D0000384608E73746E9E6704700BF034613F860
:100D1000012B002AFBD1181A01387047000000008F
:100D200001F0FF01102A2BDB10F0070F08D010F89C
:100D3000013B013A8B422DD010F0070F42B3F6D1A0
:100D4000F0B441EA012141EA014122F007047FF0B9
:100D500000070023F0E80256083C85EA010586EA10
:100D6000010685FA47F5A3FA87F586FA47F6A5FA4C
:100D700087F68EB9EED1F0BC01F0FF0102F0070258
:100D800032B110F8013B013A83EA010313B1F8D103
:100D90000020704701387047002D06BF35460338E4
:100DA000073815F0010F07D1013015F4807F02BF1D
:100DB000013015F4C03F0130F0BC0138704700BF6E
:100DC0004FF0FF3C06E000BF4FF0010C02E000BF17
:100DD0004FF0010C4DF804CD4FEA410C7FEA6C5CFA
:100DE0004FEA430C18BF7FEA6C5C1BD001B050EA9D
:100DF000410C0CBF52EA430C91EA030F02BF90EA88
:100E0000020F0020704710F1000F91EA030F58BF46
:100E1000994208BF90422CBFD8176FEAE37040F0A8
:100E2000010070474FEA410C7FEA6C5C02D150EA46
:100E3000013C07D14FEA430C7FEA6C5CD6D152EA01
:100E4000033CD3D05DF8040B704700BF84461046C6
:100E500062468C461946634600E000BF01B5FFF7C5
:100E6000B7FF002848BF10F1000F01BD4DF808ED95
:100E7000FFF7F4FF0CBF012000205DF808FB00BF66
:100E80004DF808EDFFF7EAFF34BF012000205DF8C0
:100E900008FB00BF4DF808EDFFF7E0FF94BF01200D
:100EA00000205DF808FB00BF4DF808EDFFF7CEFF0E
:100EB00094BF012000205DF808FB00BF4DF808ED4D
:100EC000FFF7C4FF34BF012000205DF808FB00BF1E
:100ED0004FEA410C7FEA6C5C02D150EA013C0AD136
:100EE0004FEA430C7FEA6C5C02D152EA033C02D128
:100EF0004FF0000070474FF0010070474FEA410289
:100F000012F5001215D211D56FF47873B3EB62525B
:100F100012D94FEAC12343F0004343EA505311F082
:100F2000004F23FA02F018BF404270474FF0000014
:100F3000704750EA013005D111F0004008BF6FF052
:100F4000004070474FF00000704700BF10B50446E6
:100F50000E4B18784FF47A73B3FBF0F30C4A106819
:100F6000B0FBF3F000F0AAF868B90F2C01D901200A
:100F70000AE0002221464FF0FF3000F05DF8034BFD
:100F80005C60002000E0012010BD00BF00000020D8
:100F90004400002008B50B4B1A6842F400721A6036
:100FA0001A6842F480621A601A6842F480721A6009
:100FB000032000F02FF80020FFF7C8FF03F0A2F88D
:100FC000002008BD003C0240034A1168034B1B7817
:100FD0000B441360704700BF48020020000000204F
:100FE000014B1868704700BF4802002038B504461E
:100FF000FFF7F6FF0546B4F1FF3F02D0044B1B7824
:101000001C44FFF7EDFF401BA042FAD338BD00BFE0
:1010100000000020074AD36823F4E0631B041B0C84
:10102000000200F4E060184340F0BF6040F400307C
:10103000D060704700ED00E030B4174BDB68C3F3BD
:101040000223C3F10704042C28BF04241D1D062D10
:1010500018D9033B4FF0FF3505FA04F421EA0401E7
:10106000994005FA03F322EA0303194300280BDB36
:101070000901C9B200F1604000F5614080F8001339
:1010800030BC70470023E5E700F00F000901C9B24A
:10109000024B1954F4E700BF00ED00E014ED00E04E
:1010A000002807DB00F01F02400901239340024A99
:1010B00042F82030704700BF00E100E00138B0F195
:1010C000807F0AD2064B5860064AF02182F823102E
:1010D0000020986007221A6070470120704700BF07
:1010E00010E000E000ED00E0042805D0054A136898
:1010F00023F0040313607047024A136843F00403AB
:101100001360704710E000E0704708B5FFF7FCFF80
:1011100008BD000000230F2B00F2D780F0B583B08C
:1011200039E0072200E00022AA403A430234674D2A
:1011300045F82420664A1468F24302EA04054F6821
:1011400017F4803F01D046EA0405614C25606468CD
:1011500002EA04054F6817F4003F01D046EA04058F
:101160005B4C6560A46802EA04054F6817F4801FB1
:1011700001D046EA0405564CA560E46822404D685B
:1011800015F4001F01D046EA0402514CE26001331D
:101190000F2B00F2988001229A400C6804EA0206A4
:1011A000B242F4D14C68651E012D03D9112C01D037
:1011B000122C12D185685F000324BC4025EA040587
:1011C000CC68BC402C438460456825EA02054C6825
:1011D000C4F300129A402A434260C4685F000322AD
:1011E000BA40D24314408D68BD402543C5604C6869
:1011F000022C01D0122C13D1DD08083550F825E05F
:1012000003F007044FEA840C0F2404FA0CF42EEACE
:10121000040E0C6904FA0CF444EA0E0440F825406C
:10122000046822404C6804F00304BC40224302607E
:101230004A6812F0805FAAD000220192254A546CBD
:1012400044F480445464526C02F480420192019A46
:101250009C08A51C1D4A52F8257003F00302950056
:101260000F22AA4027EA02071B4A90423FF45BAFD5
:1012700002F5806290421AD002F58062904218D046
:1012800002F58062904216D002F58062904214D03E
:1012900002F58062904212D002F58062904210D036
:1012A00002F5806290423FF43CAF08223CE7012205
:1012B0003AE7022238E7032236E7042234E7052220
:1012C00032E7062230E703B0F0BD70470038014036
:1012D000003C01400038024000000240036919420E
:1012E00001D10020704701207047436931EA0303B0
:1012F00001D08161704709048161704703685A69B0
:1013000012F4806F11D06FF480625A61002303637E
:10131000202280F83D2080F83E30026C42F004022A
:10132000026480F83C300120704700207047F8B517
:1013300006460C4617461D4622E0FFF751FE069B67
:10134000C01AA84200D8DDB900233363202286F8F2
:101350003D2086F83E30326C42F02002326486F83E
:101360003C3001201AE033685B6924EA03039BB236
:10137000B3FA83F35B099F420FD1B5F1FF3FDCD194
:10138000C4F30743012BEED033689B6924EA0303BF
:101390009BB2B3FA83F35B09EDE70020F8BDF8B523
:1013A00004460D4616461F463CE01A6842F4007299
:1013B0001A6023686FF480625A610023236320223D
:1013C00084F83D2084F83E30226C42F0040222640E
:1013D00084F83C30012033E0FFF702FEC01BB0422E
:1013E00000D8FEB900232363202284F83D2084F82E
:1013F0003E30226C42F02002226484F83C3001200E
:101400001EE023685B6925EA03039BB2003318BF23
:101410000123A3B123685A6912F4806FC5D1B6F1D4
:10142000FF3FD9D1C5F30743012BEAD023689B695D
:1014300025EA03039BB2003318BF0123E9E700202C
:10144000F8BD70B504460D46164623685B6913F077
:10145000800F1CD12046FFF751FFD0B9B5F1FF3FF7
:10146000F3D0FFF7BDFD801BA84201D8002DECD1C1
:1014700000232363202284F83D2084F83E30226C30
:1014800042F02002226484F83C30012000E0002079
:1014900070BD0120FCE700002DE9F04184B0044656
:1014A000884616461F460B9D0268136843F48073F6
:1014B000136000950A9B00224FF00111FFF737FFE0
:1014C00060B123681B6813F4807F4FD04FF4007322
:1014D00023640323184604B0BDE8F081226808F0B5
:1014E000FE0313612B460A9A21492046FFF757FF56
:1014F00008B10123EEE70023039323685A6903929E
:101500009B690393039B2A460A992046FFF799FF9C
:10151000034658B1236C042B01D00123DAE722687B
:10152000136843F4007313600123D3E7012F0ED037
:101530002368320A1A612A460A992046FFF781FF7A
:10154000034678B1236C042B05D00123C2E722683F
:10155000F6B21661BEE72268136843F400731360A5
:101560000123B7E72268F6B21661B3E70323B1E7B8
:10157000020001002DE9F04184B004460E461746F2
:1015800098460B9D0268136843F4806313600268F9
:10159000136843F48073136000950A9B00224FF098
:1015A0000111FFF7C4FE68B123681B6813F4807F44
:1015B00000F089804FF4007323640323184604B0BD
:1015C000BDE8F081F6B2236806F0FE021A612B46F0
:1015D0000A9A3F492046FFF7E2FE08B10123EDE7F2
:1015E0000023039323685A6903929B690393039B27
:1015F0002A460A992046FFF724FF58B1236C042B92
:1016000001D00123DAE72268136843F40073136002
:101610000123D3E7B8F1010F0DD12368FFB21F6199
:101620002A460A992046FFF70CFF20B3236C042BAF
:101630001AD00123C2E723683A0A1A612A460A9996
:101640002046FFF7FEFE58B1236C042B01D0012386
:10165000B4E72268136843F4007313600123ADE715
:101660002368FFB21F61DBE72268136843F400734D
:1016700013600123A2E72268136843F480731360A8
:1016800000950A9B00224FF001112046FFF74FFE04
:1016900048B123681B6813F4807F16D04FF40073A1
:1016A000236403238AE7236846F001061E612B4664
:1016B0000A9A07492046FFF772FE034600283FF4C6
:1016C0007DAF01237AE7032378E7032376E700BFA2
:1016D0000200010070B504460D46164623685B699A
:1016E00013F0040F1CD12046FFF708FED0B9B5F166
:1016F000FF3FF3D0FFF774FC801BA84201D8002DF8
:10170000ECD100232363202284F83D2084F83E306E
:10171000226C42F02002226484F83C30012000E078
:10172000002070BD0120FCE770B505460C4616464A
:101730002B685A6912F0400F29D15A6912F0100F24
:1017400015D1FFF74DFC801BA04201D8002CEFD132
:1017500000232B63202285F83D2085F83E302A6C3B
:1017600042F020022A6485F83C30012070BD6FF001
:1017700010025A6100232B63202285F83D2085F852
:101780003E302A6C2A6485F83C300120EEE70020C8
:10179000ECE70000002800F0C880F8B5044690F897
:1017A0003D30002B75D0242384F83D302268136827
:1017B00023F0010313602268136843F400431360AD
:1017C0002268136823F40043136000F0F1FD62689F
:1017D000584B9A4262D8584B98428CBF0023012341
:1017E000002B40F0A480554BA3FB00239B0C2168E9
:1017F0004A6822F03F021A434A6025682A6A22F0AA
:101800003F0266684B498E424ED8013313432B6228
:101810002568E96921F44F4121F0FF016368454AD9
:1018200093424BD801385B00B0FBF3F30133C3F3B1
:101830000B03042B38BF04230B43EB6121680B68B7
:1018400023F0C003E269206A024313430B6021685E
:101850008B6823F4034323F0FF032269E06802430B
:1018600013438B602168CB6823F0FF036269A06992
:1018700002431343CB602268136843F001031360F3
:1018800000202064202384F83D30206384F83E004B
:10189000F8BD80F83C3002F0D1FC84E7284B984238
:1018A0008CBF002301239BE74FF4967101FB03F3E8
:1018B0002449A1FB03139B090133A7E7A268BAB926
:1018C000461E03EB4307B6FBF7F60136C6F30B06DD
:1018D000B6FA86F6760936BBC2B9013803EB430384
:1018E000B0FBF3F30133C3F30B0242F40043A3E76D
:1018F000461E03EB830707EB8707B6FBF7F60136B7
:10190000C6F30B06B6FA86F67609E4E7013803EB70
:10191000830303EB8303B0FBF3F20132C2F30B0248
:1019200042F4404388E7012386E701207047012005
:10193000AEE700BFA08601007F841E0083DE1B434C
:10194000FF083D00D34D62102DE9F04182B00446FE
:101950000E4617469846FFF743FB94F83D30DBB23E
:10196000202B04D00223184602B0BDE8F0810546C2
:101970000090192301224C492046FFF7D8FC00288B
:1019800040F08B8094F83C30012B00F088800123DC
:1019900084F83C3023681A6812F0010F03D11A68EA
:1019A00042F001021A602268136823F40063136096
:1019B000212384F83D30402384F83E300023236403
:1019C000089B6362BDF824306385638D2385374BA4
:1019D000E36201950A9B009343463A46314620460E
:1019E000FFF75AFD00285CD1238D002B34D02A4606
:1019F0000A992046FFF725FD10BB626A236812781A
:101A00001A61616A4B1C6362238D013B9BB2238583
:101A1000628D013A92B262852268506910F0040F1B
:101A2000E2D0002BE0D04B781361636A013363622C
:101A3000238D013B2385638D013B9BB26385D3E7F7
:101A4000236C042B01D001238DE72268136843F433
:101A500000731360012386E72A460A992046FFF7A0
:101A600039FE034658B1236C042B01D001237AE7D9
:101A70002268136843F400731360012373E721683D
:101A80000A6842F400720A60202284F83D20002295
:101A900084F83E2084F83C2065E7022363E70223B4
:101AA00061E701235FE700BF020010000000FFFFB5
:101AB0002DE9F04186B004460E4617469846FFF7DA
:101AC0008FFA94F83D30DBB2202B04D0022630464A
:101AD00006B0BDE8F08105460090192301229E4919
:101AE0002046FFF724FC002840F0348194F83C3075
:101AF000012B00F03781012384F83C3023681A68F9
:101B000012F0010F03D11A6842F001021A60226834
:101B1000136823F400631360222384F83D304023CC
:101B200084F83E30002323640C9B6362BDF834309C
:101B30006385638D2385894BE36201950E9B00933A
:101B400043463A4631462046FFF714FD0646002834
:101B500040F00A81238D5BB9029323685A6902928F
:101B60009A690292029A1A6842F400721A6072E04C
:101B7000012B0AD0022B1AD00023059323685A693F
:101B800005929B690593059B65E02268136823F421
:101B9000806313600023039323685A6903929A6950
:101BA0000392039A1A6842F400721A6053E02268A2
:101BB000136823F4806313602268136843F400639E
:101BC00013600023049323685A6904929B69049369
:101BD000049B40E02A460E992046FFF7A5FD002809
:101BE00040F0C48023681A69636A1A70636A01331B
:101BF0006362238D013B2385638D013B9BB263852B
:101C000029E000950E9B002255492046FFF78FFBE7
:101C1000002840F0AD802268136843F4007313601D
:101C200023681A69636A1A70626A531C6362238D9F
:101C3000013B2385638D013B9BB2638523681B6950
:101C40005370636A01336362238D013B2385638D87
:101C5000013B9BB26385238D002B72D0032B49D8A7
:101C6000012BB7D0022BCCD000950E9B00223C4913
:101C70002046FFF75CFB00287CD12268136823F420
:101C80008063136023681A69636A1A70636A013398
:101C90006362238D013B2385638D013B9BB263858A
:101CA00000950E9B00222E492046FFF740FB00289E
:101CB00062D12268136843F40073136023681A69C1
:101CC000636A1A70626A531C6362238D013B238529
:101CD000638D013B9BB2638523681B695370636A04
:101CE00001336362238D013B2385638D013B9BB2EE
:101CF0006385B0E72A460E992046FFF715FD0028B8
:101D00003CD123681A69636A1A70626A531C636261
:101D1000238D013B2385638D013B9BB26385236843
:101D2000596911F0040F96D01B695370636A01332F
:101D30006362238D013B2385638D013B9BB26385E9
:101D400089E7202384F83D30002384F83E3084F86E
:101D50003C30BCE60226BAE6020010000000FFFF9D
:101D6000040001000226B2E60126B0E60126AEE636
:101D70000126ACE60126AAE60126A8E60126A6E68B
:101D8000002800F0E48170B582B00446036813F0C7
:101D9000010F3BD0A74B9B6803F00C03042B2CD006
:101DA000A44B9B6803F00C03082B21D06368B3F5A8
:101DB000803F4FD0B3F5A02F52D09E4B1A6822F42B
:101DC00080321A601A6822F480221A606368002B3D
:101DD00050D0FFF705F90546964B1B6813F4003FFA
:101DE00014D1FFF7FDF8401B6428F5D90320B3E1B7
:101DF000904B5B6813F4800FD8D08E4B1B6813F4A4
:101E0000003F03D06368002B00F0A381236813F028
:101E1000020F55D0874B9B6813F00C0F3ED0854BBB
:101E20009B6803F00C03082B33D0E368002B68D0C9
:101E3000814B01221A60FFF7D3F805467D4B1B68E2
:101E400013F0020F54D1FFF7CBF8401B0228F5D94D
:101E5000032081E1774A136843F480331360B5E7C8
:101E6000744B1A6842F480221A601A6842F4803275
:101E70001A60ABE7FFF7B4F805466E4B1B6813F426
:101E8000003FC3D0FFF7ACF8401B6428F5D903200E
:101E900062E1684B5B6813F4800FC6D1654B1B6829
:101EA00013F0020F04D0E368012B01D0012053E1AD
:101EB000604A136823F0F803216943EAC103136001
:101EC000236813F0080F40D0636963B35B4B0122B2
:101ED0001A60FFF785F80546564B5B6F13F0020F4B
:101EE00033D1FFF77DF8401B0228F5D9032033E1F9
:101EF000504A136823F0F803216943EAC1031360D1
:101F0000DEE74D4B00221A60FFF76AF80546494BA1
:101F10001B6813F0020FD3D0FFF762F8401B0228B2
:101F2000F5D9032018E1454B00221A60FFF758F855
:101F30000546404B5B6F13F0020F06D0FFF750F8D9
:101F4000401B0228F5D9032006E1236813F0040F93
:101F500079D0384B1B6C13F0805F33D10023019391
:101F6000344B1A6C42F080521A641B6C03F080539D
:101F70000193019B0125324B1B6813F4807F23D012
:101F8000A368012B34D0052B38D02A4B1A6F22F0CE
:101F900001021A671A6F22F004021A67A368002B65
:101FA00036D0FFF71DF80646224B1B6F13F0020FC9
:101FB00048D1FFF715F8801B41F288339842F3D9D6
:101FC0000320C9E00025D6E71D4A136843F4807357
:101FD0001360FFF705F80646194B1B6813F4807F62
:101FE000CED1FEF7FDFF801B0228F5D90320B3E018
:101FF000104A136F43F001031367CFE70D4B1A6FBD
:1020000042F004021A671A6F42F001021A67C5E72C
:10201000FEF7E6FF0646074B1B6F13F0020F11D0C9
:10202000FEF7DEFF801B41F288339842F3D903208C
:1020300092E000BF0038024000004742800E474255
:1020400000700040EDB9A369002B00F08480454A80
:10205000926802F00C02082A51D0022B17D0424B92
:1020600000221A60FEF7BCFF04463E4B1B6813F0CB
:10207000007F42D0FEF7B4FF001B0228F5D90320F1
:102080006AE0384A136C23F080531364DBE7364B65
:1020900000221A60FEF7A4FF0546324B1B6813F0BE
:1020A000007F06D0FEF79CFF401B0228F5D90320D5
:1020B00052E0E369226A1343626A43EA8213A26A26
:1020C0005208013A43EA0243E26A43EA0263254ABC
:1020D0005360254B01221A60FEF782FF0446214B14
:1020E0001B6813F0007F06D1FEF77AFF001B022861
:1020F000F5D9032030E000202EE000202CE0012B59
:102100002CD0184B9B6803F48001E269914201D006
:10211000012021E003F03F02216A8A4201D0012020
:102120001AE0616A47F6C0721A408A4201D0012063
:1021300012E003F44032A16A8A4201D001200BE090
:1021400003F07063E26A93420AD0012004E00120A8
:102150007047012000E0002002B070BD0120FBE7C5
:102160000020F9E70038024060004742324B9B688C
:1021700003F00C03042B5CD0082B01D02F487047D0
:102180002DE9F04B2C4B5A6802F03F025B6813F4C8
:10219000800F2BD0284B5B68C3F388131E460027A3
:1021A0005C010025E41A65EB0705A90141EA946189
:1021B000A001001B61EB0501CB0043EA5073C40092
:1021C000A01943EB07014B0243EAD05344022046D7
:1021D00019460023FEF71AFC174B5B68C3F3014353
:1021E00001335B00B0FBF3F0BDE8F08B124B5B6892
:1021F000C3F388131E4600275C010025E41A65EB33
:102200000705A90141EA9461A001001B61EB0501EA
:10221000CB0043EA5073C400A01943EB07018B02C3
:1022200043EA90538402204619460023FEF7EEFB52
:10223000D2E70348704700BF003802400024F40092
:1022400000127A00002800F09E8070B50446504BC2
:102250001B6803F00F038B4209D2CBB24C4A1370B8
:10226000136803F00F038B4201D0012070BD236877
:1022700013F0020F17D013F0040F04D0454A9368EF
:1022800043F4E0539360236813F0080F04D0414AED
:10229000936843F4604393603E4A936823F0F003ED
:1022A000A068034393600D46236813F0010F32D0FA
:1022B0006368012B21D09A1E012A25D9354A12685C
:1022C00012F0020F61D033498A6822F003021343EF
:1022D0008B60FEF785FE06462E4B9B6803F00C03D1
:1022E0006268B3EB820F16D0FEF77AFE801B41F2D4
:1022F00088339842F0D90320B8E7264A126812F4CE
:10230000003FE0D10120B1E7224A126812F0007FBD
:10231000D9D10120AAE71E4B1B6803F00F03AB4283
:1023200009D9EAB21A4B1A701B6803F00F03AB42CB
:1023300001D001209AE7236813F0040F06D0154A54
:10234000936823F4E053E1680B439360236813F030
:10235000080F07D00F4A936823F46043216943EACA
:10236000C1039360FFF702FF0A4B9B68C3F303139B
:10237000094AD35CD840094B1860094B1868FEF72E
:10238000E5FD002072E70120704701206EE700BFE5
:10239000003C024000380240306E0008440000203B
:1023A00004000020014B1868704700BF4400002063
:1023B00008B5FFF7F7FF044B9B68C3F38223034A7A
:1023C000D35CD84008BD00BF00380240406E000812
:1023D00008B5FFF7E7FF044B9B68C3F34233034A9A
:1023E000D35CD84008BD00BF00380240406E0008F2
:1023F0000268D36843F00103D3600268936803F076
:102400000703062B03D0136843F001031360002079
:102410007047704770477047704710B504460368AF
:102420001A6912F0020F11D0DA6812F0020F0DD003
:102430006FF002021A610123037703689B6913F0AE
:10244000030F70D0FFF7E6FF0023237723681A6994
:1024500012F0040F12D0DA6812F0040F0ED06FF0F1
:1024600004021A610223237723689B6913F4407FD7
:102470005FD02046FFF7CEFF0023237723681A6939
:1024800012F0080F12D0DA6812F0080F0ED06FF0B9
:1024900008021A61042323772368DB6913F0030F12
:1024A0004ED02046FFF7B6FF0023237723681A6932
:1024B00012F0100F12D0DA6812F0100F0ED06FF079
:1024C00010021A61082323772368DB6913F4407F25
:1024D0003DD02046FFF79EFF0023237723681A692B
:1024E00012F0010F03D0DA6812F0010F36D1236821
:1024F0001A6912F0800F03D0DA6812F0800F34D11D
:1025000023681A6912F0400F03D0DA6812F0400F06
:1025100032D123681A6912F0200F03D0DA6812F062
:10252000200F30D110BDFFF774FF2046FFF773FF77
:102530008AE72046FFF76DFF2046FFF76CFF9BE719
:102540002046FFF766FF2046FFF765FFACE7204611
:10255000FFF75FFF2046FFF75EFFBDE76FF0010268
:102560001A61204601F0DAFCC1E76FF080021A61BF
:10257000204600F08DF8C3E76FF040021A61204654
:10258000FFF74AFFC5E76FF020021A61204600F00E
:102590007EF8C7E70368304A904212D0B0F1804F0E
:1025A0000FD0A2F57C4290420BD002F5806290429F
:1025B00007D002F58062904203D002F57842904243
:1025C00003D123F070034A681343234A90422AD070
:1025D000B0F1804F27D0A2F57C42904223D002F583
:1025E000806290421FD002F5806290421BD002F5BB
:1025F0007842904217D002F57052904213D002F503
:10260000806290420FD002F5806290420BD0A2F51A
:102610009832904207D002F58062904203D002F5D2
:102620008062904203D123F44073CA68134323F0BD
:1026300080034A69134303608B68C3620B6883623B
:10264000054B984203D003F58063984201D10B6992
:10265000036301234361704700000140A8B110B536
:10266000044690F83D305BB1022384F83D30211DD3
:102670002068FFF78FFF012384F83D30002010BD54
:1026800080F83C3001F00EFEEEE701207047704705
:10269000704700002DE9F04B04460268136923F4EB
:1026A0004053C1680B431361836802691343426955
:1026B0001343C2691A430168CB6823F4164323F01D
:1026C0000C031343CB600268536923F440738169A0
:1026D0000B435361C369B3F5004F3BD00368714AA4
:1026E000934200F0AB8002F58062934200F0A68036
:1026F000FFF75EFE4FF00009061849EB090716EBDD
:10270000000B47EB090C4FEACC0343EA5B734FEA3B
:10271000CB0293469C4663689A009B0F10EB0B001C
:1027200049EB0C01FEF772F95F4DA5FB0032510930
:10273000642202FB110213013233A5FB03235B0960
:1027400003F0F00202EB011203F00F0321681344BF
:102750008B60A4E00368534A934239D002F580624B
:10276000934235D0FFF724FE83464FF0000C061845
:102770004CEB0C0716EB000847EB0C094FEAC903BA
:1027800043EA58734FEAC8029046994662680021AE
:10279000921841EB01031BEB08004CEB0901FEF71B
:1027A00035F9414DA5FB00325109642202FB1102AB
:1027B000D3003233A5FB03235B095A0002F4F872FD
:1027C00002EB011203F00703216813448B6066E0FB
:1027D000FFF7FEFD80464FF00009061849EB090798
:1027E00016EB000B47EB090C4FEACC0343EA5B7393
:1027F0004FEACB0293469C4662680021921841EB57
:10280000010318EB0B0049EB0C01FEF7FFF8264D16
:10281000A5FB00325109642202FB1102D3003233BE
:10282000A5FB03235B095A0002F4F87202EB0112C4
:1028300003F00703216813448B6030E0FFF7C8FD05
:102840004FF00009061849EB090716EB000B47EBA0
:10285000090C4FEACC0343EA5B734FEACB02934681
:102860009C4663689A009B0F10EB0B0049EB0C0130
:10287000FEF7CCF80C4DA5FB00325109642202FB97
:10288000110213013233A5FB03235B0903F0F002AD
:1028900002EB011203F00F03216813448B60BDE8C3
:1028A000F08B00BF001001401F85EB512DE9F04176
:1028B00005460F4616469846069C2B681B6837EA65
:1028C00003030CBF01230023B3421DD1B4F1FF3F2A
:1028D000F3D02CB1FEF784FBA0EB0800A042ECD9AA
:1028E0002A68D36823F4D073D3602A68536923F02D
:1028F00001035361202385F8393085F83A300023ED
:1029000085F83830032000E00020BDE8F08158B39E
:1029100010B5044690F839300BB3242384F83930CD
:102920002268D36823F40053D3602046FFF7B2FE39
:102930002268136923F4904313612268536923F0DA
:102940002A0353612268D36843F40053D360002004
:10295000E063202384F8393084F83A3010BD80F8E1
:10296000383001F0EDFBD8E7012070472DE9F04346
:1029700083B01E4690F83930DBB2202B56D1044686
:102980000D469046002956D0002A56D090F838308F
:10299000012B54D0012380F838304FF00009C0F8E3
:1029A0003C90212380F83930FEF71AFB0746A4F843
:1029B0002480A4F8268084F8389010E000963B46E6
:1029C000002280212046FFF771FF002839D12B8893
:1029D0002268C3F3080353602369C3B90235E38C4B
:1029E0009BB2B3B1E38C013B9BB2E384A368B3F524
:1029F000805FE3D000963B46002280212046FFF70F
:102A000055FF00BB2A7823685A600135E7E7013596
:102A1000E5E700963B46002240212046FFF746FFAF
:102A2000034690B9202284F8392000E0022318469A
:102A300003B0BDE8F0830123F9E70123F7E70223A0
:102A4000F5E70323F3E70323F1E70323EFE70000B0
:102A5000F0B52DED028B87B006460C46154612F0F8
:102A6000010F51D115F0020F40F08F8015F0040FC7
:102A700040F0EC8015F0080F40F0298115F0100FA0
:102A800036D03378002B00F081819DF811309DF80D
:102A9000100040EA032000B2FDF7ECFC0022B74B27
:102AA000FDF77CFEFDF762FF20609DF813309DF876
:102AB000120040EA032000B2FDF7DCFC0022AF4B1D
:102AC000FDF76CFEFDF752FF60609DF815309DF834
:102AD000140040EA032000B2FDF7CCFC0022A74B13
:102AE000FDF75CFEFDF742FFA06000230493059311
:102AF00015F0200F40F08E8115F0400F40F0148249
:102B000007B0BDEC028BF0BD4FF4FA6302930623CD
:102B1000019304AF009701232E2252219848FEF71B
:102B2000C7FF9DF811309DF8100040EA032000B265
:102B3000FDF7A0FC0022914BFDF730FEFDF716FFDC
:102B4000A0649DF813309DF8120040EA032000B203
:102B5000FDF790FC0022894BFDF720FEFDF706FFF4
:102B6000E0649DF815309DF8140040EA032000B29F
:102B7000FDF780FC0022814BFDF710FEFDF7F6FE0D
:102B80002065002304937B606CE74FF4FA630293A3
:102B90000823019304AB009301232022522178489B
:102BA000FEF786FF9DF811209DF8103043EA0223BE
:102BB0001BB2002B3ADB9B1307EE903AF8EEE77A54
:102BC000C4ED157A9DF813209DF8123043EA0223D4
:102BD0001BB2002B2EDB9B1307EE903AF8EEE77A40
:102BE000C4ED167A9DF815209DF8143043EA0223AF
:102BF0001BB2002B22DB9B1307EE903AF8EEE77A2C
:102C0000C4ED177A9DF817209DF8163043EA022389
:102C10001BB2002B16DB9B1307EE903AF8EEE77A17
:102C2000C4ED187A0023049305931FE703F57F533F
:102C30003F33C0E703F57F533F33CCE703F57F53C2
:102C40003F33D8E703F57F533F33E4E74FF4FA63AC
:102C500002930623019304AF0097012328225221F7
:102C60004748FEF725FF9DF811309DF8100040EA17
:102C7000032000B2FDF7FEFB0022404BFDF78EFD66
:102C8000FDF774FEE0639DF813309DF8120040EAF2
:102C9000032000B2FDF7EEFB0022384BFDF77EFD6E
:102CA000FDF764FE20649DF815309DF8140040EA9D
:102CB000032000B2FDF7DEFB0022304BFDF76EFD76
:102CC000FDF754FE6064002304937B60D2E64FF46A
:102CD000FA6302930623019304AF009701231422A1
:102CE00052212748FEF7E4FE9DF811309DF81000B0
:102CF00040EA032000B2FDF7BDFB0022214BFDF7A7
:102D00004DFDFDF733FE08EE900A9DF813309DF857
:102D1000120040EA032000B2FDF7ACFB0022194B81
:102D2000FDF73CFDFDF722FE08EE100A9DF8153078
:102D30009DF8140040EA032000B2FDF79BFB00223F
:102D4000104BFDF72BFDFDF711FE0F4BD3ED007A75
:102D500078EEE78AC4ED038AD3ED017A38EE678A0C
:102D600084ED048AD3ED027A07EE100A77EE677AD3
:102D7000C4ED057A002304937B607FE60000594090
:102D8000D002002000208C40080000204FF4FA639D
:102D900002930623019304AB0093012308225221DE
:102DA0008048FEF785FE9DF811309DF8100040EA3E
:102DB000032000B2FDF75EFB00227B4BFDF7EEFC2B
:102DC000FDF7D4FD80F0004020609DF813309DF8A1
:102DD000120040EA032000B2FDF74CFB0022724BC8
:102DE000FDF7DCFCFDF7C2FD80F0004060609DF85F
:102DF00015309DF8140040EA032000B2FDF73AFBBD
:102E00000022694BFDF7CAFCFDF7B0FD80F00040E1
:102E1000A0606AE64FF4FA6302930623019304AEBE
:102E2000009601230E2252215E48FEF741FE9DF8D6
:102E300011309DF8100040EA032000B2FDF71AFBA4
:102E400000225A4BFDF780FBFDF790FD08EE900A3B
:102E5000A0619DF813309DF8120040EA032000B2F3
:102E6000FDF708FB0022514BFDF76EFBFDF77EFDE1
:102E700008EE100AE0619DF815309DF8140040EA54
:102E8000032000B2FDF7F6FA0022484BFDF75CFB89
:102E9000FDF76CFD06EE900A2062454BD3ED037AF8
:102EA00078EEE75A93ED046A38EE466AD3ED057A78
:102EB00076EEE76A93ED067A27EE257AD3ED077A68
:102EC00067EE867A37EE277AD3ED087A67EEA67A30
:102ED00037EE277A84ED097A93ED097A27EE257A81
:102EE000D3ED0A7A67EE867A37EE277AD3ED0B7A3E
:102EF00067EEA67A37EE277A84ED0A7AD3ED0C7A5C
:102F000067EEA57A93ED0D7A27EE066A77EE867A5C
:102F100093ED0E7A67EE266A77EEA67AC4ED0B7A09
:102F2000002304937360E7E54FF4FA6302930623EA
:102F3000019304AB009301231A2252211948FEF792
:102F4000B7FD9DF811309DF8100040EA032000B253
:102F5000FDF790FA0022154BFDF7F6FAFDF706FD96
:102F600020639DF813309DF8120040EA032000B260
:102F7000FDF780FA00220D4BFDF7E6FAFDF7F6FCAF
:102F800060639DF815309DF8140040EA032000B2FC
:102F9000FDF770FA0022054BFDF7D6FAFDF7E6FCC7
:102FA000A063ADE5D0020020000059400000B03F12
:102FB0000800002000B587B006AA02F8010D4FF402
:102FC000FA630293012301930092072252210648DB
:102FD000FEF7BAFC10B907B05DF804FB034800F037
:102FE00079FF00F0ADFEF6E7D0020020B06E0008D9
:102FF00010B586B006AC04F8010D0020FFF7DAFF2B
:103000004FF4FA6302930123019300943D2252216D
:103010000A48FEF799FC38B99DF8173053B10C20D7
:10302000FDF7E4FF06B010BD054800F053FF00F0C7
:1030300087FEF1E71820FDF7D9FFF3E7D002002063
:10304000E06E000800B587B006AA202302F8013D13
:103050004FF4FA6302930123019300923F2252211D
:103060000848FEF771FC30B94FF47A70FDF7BEFFE7
:1030700007B05DF804FB044800F02CFF00F060FE90
:10308000F2E700BFD0020020046F000810B586B040
:1030900006AC04F8010D0020FFF78CFF4FF4FA6333
:1030A00002930123019300943F2252210248FEF72C
:1030B0004BFC06B010BD00BFD002002010B586B09A
:1030C00006AC04F8010D0020FFF774FF4FF4FA631B
:1030D00002930123019300943E2252210748FEF7F8
:1030E00033FC20B93220FDF781FF06B010BD044843
:1030F00000F0F0FE00F024FEF4E700BFD002002054
:103100001C6F0008F0B587B00446002206A901F83C
:10311000012D4FF4FA630293012301930091522190
:103120006448FEF7C5FC50B1634800F0D3FE00F0E0
:1031300007FE08E0614800F0CDFE00F001FE9DF8BA
:103140001730A02BF6D10020FFF752FF0120FFF728
:1031500031FF584E4FF4FA67029701250195631D20
:1031600000932B46082252213046FEF7EDFB6420E7
:10317000FDF73CFF02970195A31D00932B460A2201
:1031800052213046FEF7E0FB6420FDF72FFF0020C0
:10319000FFF710FF3220FDF729FF6423029301950A
:1031A0000DF1160300932B46382252213046FEF7CC
:1031B0007FFC3220FDF71AFF9DF8163043B32378C9
:1031C00073B3012B50D03E4800F084FE00F0B8FDF0
:1031D0004FF4FA63029301230193E21800923B2219
:1031E00052213448FEF7B0FB6420FDF7FFFEE07883
:1031F000FFF764FF6420FDF7F9FEA078FFF7F8FE03
:103200006420FDF7F3FE2F4800F064FE07B0F0BD28
:103210002079FFF73BFF4FF47A70FDF7E7FECEE72A
:1032200006AB212203F8042D224E4FF4FA670297D1
:103230000125019500932B46412252213046FEF78D
:1032400083FB6420FDF7D2FE06AB03F8035D029713
:10325000019500932B46422252213046FEF774FB23
:103260001420FDF7C3FEB3E706AB242203F8042DB8
:10327000104E4FF4FA6702970125019500932B46F3
:10328000412252213046FEF75FFB6420FDF7AEFE7F
:1032900006AB002203F8032D0297019500932B46FD
:1032A000422252213046FEF74FFB1420FDF79EFECE
:1032B0008EE700BFD00200203C6F0008646F00085A
:1032C0007C6F0008906F00080278044B1A70426807
:1032D000034B1A608268034B1A607047900200200B
:1032E000980200209402002010B52DED108B92B0B2
:1032F0000446F0EE40AAB0EE60AAB0EE41BACDEDC1
:10330000021A8DED032ACDED042AF0EE43CAB0EE89
:1033100063CAF0EE44BAD0ED199A90ED1A9A90ED86
:103320001B8AD0ED1C8AF6EE007A29EEA7FA29EE68
:1033300027EA68EE27FA68EEA7EA79EEA9DA39EE0D
:1033400009DA78EE087ACDED017A78EEA87ACDED3B
:10335000057A60EE007A20EEA00A77EE807A21EE00
:10336000010A37EE800A01F0CFF9B5EE400AF1EE1E
:1033700010FA03D112B0BDEC108B10BDB7EE007A7D
:10338000C7EE007A6AEEA7AA2AEE27AA2BEE27BA82
:103390006CEEAC7A2CEE0C0A77EE807A2BEEAB0A50
:1033A00037EE800A01F0B0F9B5EE400AF1EE10FAFE
:1033B000E0D0B7EE007AC7EE007A6CEEA7CA2CEE2A
:1033C00027CA6BEEA7BA0EAB0FAA10A911A8F0EE90
:1033D0006B3AB0EE4C3AF0EE6C2A9FEDE82AF0EE34
:1033E000681AB0EE481AF0EE490AB0EE690A00F029
:1033F00093FF0AAB0BAA0CA90DA8F1EE683AB1EE47
:10340000483AF1EE492AB0EE692ADDED0E1A9DED3B
:103410000F1ADDED100A9DED110A00F07DFFD44B6F
:103420001B78002B00F08480012B00F0A981DDEDDA
:10343000025A6EEE657A9DED035A2FEE857A77EE8D
:10344000C77ADDED044A2EEEA47A77EEC77AC94B2F
:1034500093ED000A9DED067A20EE077A37EEC76AF3
:103460006FEE257A2FEEA47A77EE877A2EEE857AA4
:1034700077EEC77A9DED077A20EE077A77EEC76A76
:103480006FEE057A2EEE247A37EEC77A6EEEA57AC5
:1034900077EE277A9DED087A60EE07EA77EEEEEA9E
:1034A0006FEE247A2EEE057A77EE877A2FEEA57AE4
:1034B00077EEC77A9DED097A20EE07FA37EECFFA5C
:1034C000AD4B93ED007A67EE06FA7FEEA99A67EEB0
:1034D000267A37EE899A67EE2E7A37EE888A27EEBB
:1034E0000FFA7FEE288A69EEA97A29EE090A77EEAB
:1034F000807A28EE080A77EE807A28EEA80A37EE5E
:10350000800A01F001F9F7EE007A87EE800A69EE91
:10351000809AC4ED199A29EE009A84ED1A9A28EE41
:10352000008A84ED1B8A68EE808AC4ED1C8A21E73C
:103530009DED0C0A20EE000ADDED0B7A67EEA77A0E
:1035400030EE270A01F0E0F89DED0A4A30EE000A5D
:1035500034EE044A69EE805A29EE005A68EE004AB9
:1035600028EE806A29EE847A69EE047A68EE046AAD
:1035700068EE840A68EE8D3A28EE2D3A73EEC33A6F
:1035800073EEEAAA69EE2D3ADDED012A28EEA23AA1
:1035900073EE833A33EECAAA69EE0D3AB7EE003AFB
:1035A00073EE633A28EE223A73EEC33A33EECBBAA7
:1035B000B6EE003A60EE033A28EE240A73EEC03A03
:1035C00068EE862A73EEE23A68EEA72A73EEA23A14
:1035D00068EE072A73EEE23A73EEECCA68EE053A3B
:1035E00073EEC63A69EE072A73EEA23A68EEA62A8F
:1035F00073EEA23A33EECCCA68EE252A68EE853A1D
:1036000072EEA33A24EE034A73EE843A29EE274A77
:1036100073EEC43A28EE264A33EEC44A74EE6BBA0F
:10362000B9EE000A29EE004A28EE000AF8EE001A68
:1036300024EEA11A31EE471A66EE211A71EEA71A8E
:1036400077EEC63A34EE877A35EE203A36EEE52A42
:1036500077EEA77A36EE676A76EEA67A75EEE75AC7
:10366000DDED012A62EEEA2A6DEE0A7A72EEA72AF1
:10367000DFED427A6BEE277A72EEA72A66EEEC6AED
:1036800072EEA66A6CEE233A76EEA36A64EEAB4A5B
:1036900076EEA43ADDED052A62EEAA4A6DEE8A6A5C
:1036A00074EEA66A6BEE044A76EEA44A60EEAC6A4B
:1036B00074EEA66A2CEE077A76EE876A2BEE867A8F
:1036C00036EE876A2DEEEA7A62EE8ADA37EE2D7AE6
:1036D0002BEE00BA37EE0B7A2CEE811A37EE017A18
:1036E0002CEE033A37EE037A6BEEA55A37EE25BA85
:1036F0006DEE2AAADDED012A22EE8AAA3AEE8A7A36
:1037000077EE877A6CEEA1CA77EEAC7A2CEE02CA1D
:1037100077EE8C7A65EE2BBA37EEABAAF0EE63AAA1
:1037200063EEA37AF0EE46BA26EE060A77EE807ACA
:103730002BEE0B0A77EE807A2AEE0A0A37EE800A21
:1037400000F0E2FFB7EE003A83EE000A6AEE807AFC
:10375000CDED067A6BEE807ACDED077A6BEE007ACE
:10376000CDED087A6AEE007ACDED097A5FE600BF0A
:103770009002002094020020980200200000000027
:103780009DED0C0A20EE000ADDED0B7A67EEA77ABC
:1037900030EE270A00F0B8FFDDED0A2A30EE004ACD
:1037A00072EEA25A69EE847A69EE046A28EE041A6F
:1037B00028EE845A29EEA56A29EE257A68EE254A74
:1037C00068EEA51A68EE2D3A28EE8D3A73EEC33AEC
:1037D00073EEEAAAF1EE6D0A60EE893A9DED012AD8
:1037E00028EE823A73EEC33A33EECAAA69EE0D3A76
:1037F000B7EE003A73EEC33A28EE023A73EE833A1C
:1038000033EECBBA28EEA73A68EE263A33EE233AE7
:1038100068EE063A73EE633A28EE873A73EE833A1F
:1038200073EEECCAF6EE003A24EE234A29EE263A6D
:1038300034EE433A28EE854A33EE443A29EE064AFE
:1038400033EE044A28EEA43A34EE034A34EE4CCA6E
:1038500028EE814A29EE273A34EE434A65EEA35A10
:1038600034EE254A69EE075A34EE654A68EE245A6A
:1038700034EE654A74EE6BBADDED055AF1EE655A29
:10388000CDED065AB1EE4D4A3DEE0DDA72EE023A3A
:1038900035EE643A8DED051A71EE215A36EEC62AE0
:1038A00037EE871A8DED071A20EE4D0A30EE060A24
:1038B000B8EE006A25EE066A36EE246AF1EE677A03
:1038C00062EE8D4A77EEE47A62EEA34A35EE645AF0
:1038D0009DED011A61EE2A2A6AEE044A72EEA42ACC
:1038E0005FED5A4A6BEE244A72EEA42A2CEE833A1C
:1038F00032EE833A27EE0C7A33EE073A26EEEB7A75
:1039000033EE077AB0EE473ADDED062A6AEEA26A98
:1039100020EE8A7A36EE877A2BEE0DDA37EE0DDA64
:103920006CEEA55A3DEE25DA2CEE000A3DEE00DAEB
:103930006BEEA77A3DEE27DA6DEEAA7A6AEE22DA0E
:1039400077EEAD7A2BEE23BA77EE8B7A2CEE822AC5
:1039500037EE827A61EE8C7A77EE277A2BEE855AF3
:1039600037EE85BA6AEE84AA21EE4AAA3AEE8AAA0E
:1039700074EE8A7A9DED071A6CEE81CA77EEAC7A06
:103980002CEE06CA77EE8C7A9DED051A61EE2BBA05
:1039900037EEABAAF0EE43AA63EE037A2DEE0D0AE2
:1039A00077EE807A2BEE0B0A77EE807A2AEE0A0AFF
:1039B00037EE800A00F0A8FEB7EE003A83EE000A68
:1039C0006AEE807ACDED067A6DEE007ACDED077A5B
:1039D0006BEE007ACDED087A6AEE007ACDED097AC9
:1039E00025E500BF10B52DED0A8B84B00446F0EE3E
:1039F000409AB0EE60AAB0EE41BAB0EE619AF0EE35
:103A0000428AB0EE628A61EEA17A22EE020A77EE75
:103A1000807A22EEA20A37EE800A00F075FEF7EEF9
:103A2000007A87EE800A29EE009A68EE808A28EEF6
:103A3000008A69EEA97A2AEE0A0A77EE807A2BEEDE
:103A40000B0A37EE800A00F05FFEB5EE400AF1EE99
:103A500010FA30D0F7EE007A87EE801A69EE819A7C
:103A60002AEE01AA2BEE01BA6F4B1B78002B7ED1F8
:103A700068EE0AAA68EE8B7A7AEEE7AA69EE0B7A0C
:103A800028EE298A37EEC88A68EEA98A29EE0A9AB2
:103A900078EEC98A6AEEAA7A28EE080A77EE807A6A
:103AA00028EEA80A37EE800A00F02EFEB5EE400A96
:103AB000F1EE10FA03D104B0BDEC0A8B10BDF7EEA5
:103AC000007A87EE809A6AEE89AA28EE098A28EEA3
:103AD000899A6BEE08BA6AEE097A7BEEE7BA29EEAC
:103AE00089CA6BEE2A7A3CEE67CA6AEE2A8A69EEC8
:103AF000887A78EEE78A6BEEAB7A2CEE0C0A77EEDA
:103B0000807A28EEA80A37EE800A00F0FDFDB5EEB7
:103B1000400AF1EE10FACED0B7EE007AC7EE007A86
:103B20006BEEA7BA2CEE27CA68EEA78A6B4601AAED
:103B300002A903A8B0EE4B4AF0EE4A3AB0EE693A59
:103B4000F0EE492AB0EE482AF0EE6A1AB0EE681A92
:103B5000F0EE4C0AB0EE6B0A00F01FFC039B6366AC
:103B6000029BA366019BE366009B2367A3E768EEC5
:103B70008BAA68EE0A7A7AEEE7AA28EE298A69EE1D
:103B80000B7A38EE678A29EE0A9A68EEA98A79EEEE
:103B9000688A6AEEAA7A28EE080A77EE807A28EE1A
:103BA000A80A37EE800A00F0AFFDB5EE400AF1EE4C
:103BB00010FA80D0B7EE007AC7EE007A6AEEA7BAA4
:103BC00028EE27CA68EEA78A6AEE28AA6BEE0C7A5E
:103BD0007AEEE7AA2BEE2B8A69EEA87A38EE678A8E
:103BE00029EE8C9A6AEE2B7A79EE67CA6AEEAA7A87
:103BF00028EE080A77EE807A2CEEAC0A37EE800ABF
:103C000000F082FDB5EE400AF1EE10FA3FF453AF3A
:103C1000F7EE007A87EE809A6AEE89AA28EE098A82
:103C20002CEE899A82E700BF9002002008B5FDF7CC
:103C3000CBF9FDF76AFA08BD08B50248FEF7EDFBBF
:103C400008BD00BF3004002030B58DB000240094C2
:103C5000134B1A6B42F008021A631A6B02F0080247
:103C60000092009A01941A6B42F001021A631B6BD6
:103C700003F001030193019B4FF480530793012547
:103C80000895099407A90748FDF744FA029503949B
:103C9000049402A90448FDF73DFA0DB030BD00BF01
:103CA00000380240000C02400000024008B5FFF757
:103CB000C9F90848012343718371002303708022EE
:103CC0000271C3700723837002234370FFF71AFA4F
:103CD00008BD00BF2804002000B585B0FEF768FBD2
:103CE000134BDB680BB30221124B0393124AD368C8
:103CF000013307EE903AB8EE677A00FB01F05368A3
:103D00000133B0FBF3F007EE900AF8EE677AC7EEE6
:103D1000276ACDED026A094B1B7804A800F80C3D18
:103D2000FFF7D2FA05B05DF804FB0121DCE700BF24
:103D3000EC0300207B142E3F3004002028040020D8
:103D400008B54FF480510248FDF7CFFAFEE700BFF7
:103D5000000C024010B5444B01221A604FF480322F
:103D60005A6002229A614FF48002DA6154284ED0E0
:103D70001BD978285ED0A82848D13B4B08221A626C
:103D80004FF4A8725A6202229A620721D962374B15
:103D90000F2119605A6000229A604FF4A052DA6035
:103DA0004FF480521A61052414E032282ED12E4B94
:103DB00004221A6232225A6202229A62DA622B4B7F
:103DC0000F2119605A6000229A604FF48051D96027
:103DD0001A6101242448FDF7D3FF002840D1214671
:103DE0002248FEF72FFA00283CD1FEF7DBFA204BE1
:103DF000A3FB00308009FDF761F90420FDF774F999
:103E0000002211464FF0FF30FDF716F910BD164B9A
:103E100004221A6254225A6202249C62DC62134B0E
:103E20000F221A605C6000229A604FF48051D960C2
:103E30001A61CFE70C4B04221A6278225A620222DE
:103E40009A62DA62094B0F2119605A6000229A6067
:103E50004FF4A052DA604FF480521A610324B9E79C
:103E6000FFF76EFFFFF76CFFA0020020EC030020BD
:103E7000D34D621008B50948094B03604FF4E13394
:103E8000436000238360C360036183610C2343614B
:103E9000FEF73DFD00B908BDFFF752FF8005002089
:103EA0000044004008B50948094B03604FF4E13372
:103EB000436000238360C360036183610C2343611B
:103EC000FEF725FD00B908BDFFF73AFF700400209A
:103ED0000014014010B50446FCF718FF4FF0FF3303
:103EE00082B221460A48FEF741FD28B9C8220021C6
:103EF000204600F029FF10BD064C2046FFF7EAFFE0
:103F00000548FFF7E7FF2046FFF7E4FFFFF718FF3C
:103F1000800500206C7300088C730008354B8342C9
:103F200000D07047F0B587B0334B1B68002B44D1ED
:103F3000324C302221463248FEF78AFDD4ED0B2A5E
:103F400094ED0A2AD4ED091A94ED021AD4ED010A6F
:103F500094ED000A2046FFF745FD274B01221A6029
:103F6000284E294F294D254B324639462846D3ED58
:103F70001C1A93ED1B1AD3ED1A0A93ED190A00F0DF
:103F8000B5FA234C3868FCF787FACDE904013068AC
:103F9000FCF782FACDE902012868FCF77DFACDE949
:103FA00000011C4AC821204601F032FB1A4B186060
:103FB0002046FFF78FFF07B0F0BD104C3822214696
:103FC0000F48FEF745FD94ED0B4AD4ED0A3A94ED07
:103FD000093AD4ED052A94ED042AD4ED031A94EDA0
:103FE000021AD4ED010A94ED000A2046FFF77CF98D
:103FF000B6E700BF30040020C4050020B404002050
:1040000028040020B00400207C0500209C02002031
:1040100024030020B07300083802002010B50F48B8
:104020000F4B03600F4B436000238360C3604FF46A
:104030008042026143618361C3610362FDF7AAFBB1
:1040400000B910BD084C2046FFF744FF0748FFF7B2
:1040500041FF2046FFF73EFFFFF772FED00200202F
:1040600000580040A08601006C730008BC73000873
:1040700008B50848084B036041F26F7343607C2326
:10408000C360FEF7EBFA00B908BD0448FFF722FF52
:10409000FFF756FE3004002000100040E0730008D7
:1040A00008B5FCF777FF7820FFF754FEFFF7CCFD4B
:1040B000FFF7E0FEFFF7F6FEFFF7B0FFFFF7F6FDB4
:1040C000FFF7D6FFFFF708FE03E00B4B1B68012B41
:1040D00010D001210948FDF701F90128F5D1064B5F
:1040E0001B68002BF1D10648FEF782F9024B012232
:1040F0001A60EAE7FEE700BFC005002000000240AA
:104100003004002008B50320FCF784FF0B4A536AF3
:1041100043F4E0235362002211466FF00B00FCF7DA
:104120008BFF002211466FF00A00FCF785FF00228A
:1041300011466FF00900FCF77FFF08BD00ED00E0BD
:1041400070B58AB00368384A934204D0374A934224
:1041500035D00AB070BD00240194354B1A6C42F47E
:1041600000321A641A6C02F400320192019A02942D
:104170001A6B42F001021A631B6B03F001030293F6
:10418000029B0423059302230693012307930894BB
:1041900007260996274D05A92846FCF7BBFF0823EB
:1041A0000593099605A92846FCF7B4FF2620FCF7DD
:1041B00077FF22460F212620FCF73EFFC9E70024A7
:1041C00003941B4B5A6C42F020025A645A6C02F062
:1041D00020020392039A04941A6B42F004021A63B9
:1041E0001B6B03F004030493049B402305930223F9
:1041F0000693012307930894082609960E4D05A9F6
:104200002846FCF787FF80230593099605A92846D1
:10421000FCF780FF4720FCF743FF22460F21472091
:10422000FCF70AFF95E700BF00440040001401407E
:1042300000380240000002400008024010B588B07B
:1042400000220192154B196C41F480011964196C1C
:1042500001F48001019101990292196B41F0020170
:1042600019631B6B03F002030293029B4FF48063FC
:104270000393122304930592069204230793084C98
:1042800003A92046FCF746FF4FF40063039303A9FC
:104290002046FCF73FFF08B010BD00BF00380240C9
:1042A0000004024010B582B000240194094B1A6C3E
:1042B00042F010021A641B6C03F010030193019B7F
:1042C0003620FCF7EDFE22460F213620FCF7B4FE27
:1042D00002B010BD00380240B5EEC00AF1EE10FA8F
:1042E000CCBF012300234CBF012200229B1A00EE09
:1042F000103AB8EEC00A7047B4EEE00AF1EE10FAD8
:1043000007D4B4EEC10AF1EE10FA04DDB0EE410AB2
:104310007047B0EE600A704760EE027A20EEA27A33
:1043200077EEC77A21EE037A77EEC77A21EEA37A89
:1043300077EEC77AC0ED007A60EE227A22EE207A1C
:1043400077EE877A21EE237A77EE877A23EE217A49
:1043500077EEC77AC1ED007A60EE037A20EEA37A99
:1043600077EEC77A22EE017A77EE877A22EEA17A8B
:1043700077EE877AC2ED007A20EE230A60EE830A98
:1043800030EE200A62EE812A30EE620A22EE212A05
:1043900030EE022A83ED002A7047F8B52DED0C8B24
:1043A000B0EE40AAB0EE60BAF0EE41CAF0EE61BAEB
:1043B000F0EE429AF0EE62AAB0EE43CAB0EE63DAD3
:1043C000B0EE449A06460D4614461F4630EE020AE9
:1043D000B0EE081AFFEE000A30EE040AFFF78CFF79
:1043E000F7EE008A30EE280A00F08EF9B6EE008A69
:1043F00020EE080A86ED000A3DEE6A0AFFF76CFF20
:1044000060EE08AA3AEE690AB0EE681AFFEE000AFA
:1044100030EE490AFFF770FF30EE280A00F074F919
:104420002AEE800A85ED000A3CEECC0AFFF754FF25
:1044300060EE08AA39EEC90AB0EE681AFFEE000A6B
:1044400030EE4A0AFFF758FF30EE280A00F05CF918
:104450002AEE800A84ED000A3BEECB0AFFF73CFF10
:1044600020EE088A39EE4A0AB0EE681AFFEE000A1A
:1044700030EE690AFFF740FF30EE280A00F044F9F9
:1044800028EE000A87ED000AD6ED007A67EEA77ADB
:1044900095ED007A27EE077A77EE877A94ED007A29
:1044A00027EE077A77EE877A20EE000A37EE800A49
:1044B00000F02AF996ED007AC7EE007AC6ED007A90
:1044C00095ED007AC7EE007AC5ED007A94ED007A9A
:1044D000C7EE007AC4ED007A97ED007AC7EE007A55
:1044E000C7ED007ABDEC0C8BF8BD000070B52DED6A
:1044F000048B04460E46154630EE007A70EEA06A34
:1045000071EE018A60EE007A20EEA08A61EE015A17
:1045100021EEA16A66EE819A27EE215A79EE859AFC
:1045200037EE889A39EE659A39EE469A67EE200A98
:1045300068EEA18A70EEA88A66EEA11A27EE011A2B
:1045400037EEC88A38EE658A38EE068A31EEC10A3F
:1045500000F07EF8B1EE400A86ED000AF0EE480A5F
:10456000B0EE680A00F0CEF885ED000AF0EE490AD8
:10457000B0EE690A00F0C6F884ED000AD6ED007AC4
:104580009FED147A67EE877AC6ED007AD4ED007A53
:1045900067EE877AC4ED007AD5ED007A67EE877A08
:1045A000C5ED007AD4ED007A9FED0B7A77EEC77AED
:1045B000C4ED007AF5EEC07AF1EE10FA02D4BDEC4B
:1045C000048B70BD9FED057A77EE877AC4ED007A93
:1045D000F5E700BFE12E65422FDDFC3F0000B4434C
:1045E000054BD3F8882042F47002C3F888204FF0BE
:1045F00000629A60704700BF00ED00E0DFF834D041
:10460000002103E00C4B5B58435004310B480C4B2A
:1046100042189A42F6D30B4A02E0002342F8043BC8
:10462000094B9A42F9D3FFF7DBFF00F069FBFFF774
:1046300037FD704700000220C87600080000002007
:104640001C0200201C020020CC050020FEE7000018
:1046500010B52DED028B284C8AB0B0EE408A00F0E8
:10466000A9F894F900300133F0EE408A34D0B4EE6A
:10467000488AF1EE10FA2FD6B0EE480A00F032FB6D
:10468000F7EE007AB4EEE70AF1EE10FA24DD01232A
:104690001A4A009318EE100A002301920893FBF7C0
:1046A000FBFE02460B461648CDE90423CDE9022362
:1046B00000F03EFA94F90030022B8DED060B11D07C
:1046C000684600F033FA68B1089B83B9DDE906015A
:1046D000FCF74CF908EE900AB0EE680A0AB0BDEC9F
:1046E000028B10BD00F006FB21230360ECE700F015
:1046F00001FB089B0360E9E74800002028740008DC
:10470000AC73000800F050B910B52DED028B8AB0E3
:10471000B0EE408A00F006FA244B93F90040631C87
:1047200009D0B4EE488AF1EE10FA04D6B5EEC08A8C
:10473000F1EE10FA03D40AB0BDEC028B10BD0123D8
:104740001B4A009318EE100A002301920893FBF70E
:10475000A3FE0022CDE90401CDE902010023BCB192
:1047600010461946FCF71AF8022CCDE9060111D1C2
:1047700000F0C0FA21230360089B8BB9DDE9060134
:10478000FCF7F4F800EE100A0AB0BDEC028B10BD85
:10479000CDE90623684600F0C9F90028ECD1E7E727
:1047A00000F0A8FA089B0360E8E700BF480000207B
:1047B0003074000838B510EE105A25F00044B4F1FA
:1047C0007E5F2DED048B68D060DCB4F17C5F0DDA88
:1047D000B4F1485F6EDADFED647A70EE277AB7EEF7
:1047E000007AF4EEC77AF1EE10FA53DC00F07AFAB0
:1047F000B7EE007A37EE400AB6EE008A20EE088A5D
:10480000DFED5A2ADFED5A3A9FED5A3ADFED5A4A68
:104810009FED5A4ADFED5A5A9FED5A5A9FED5A6A58
:10482000DFED5A6ADFED5A7AE8EE223AA8EE034A43
:10483000E3EE884AA4EE085AE4EE885AE5EE086AE8
:10484000A5EE886AA6EE887AE6EE087AB0EE480A07
:10485000B0EE479A67EE888A00F064F94D4B9C42AF
:104860005BDDC8EE896A9FED4C7ADFED4C7AA0EEF5
:10487000260AF0EE006AA0EE267A37EEC70ABDECF3
:10488000048B002DD8BFB1EE400A38BD70EE407ADF
:1048900087EEA70ABDEC048B38BDDFED417A9FEDB2
:1048A0003F7A60EE277ABDEC048BE0EE077AB0EE3B
:1048B000670A38BD60EE007ADFED2C2ADFED2C3A76
:1048C000DFED2D4A9FED2B3A9FED2C4ADFED2C6A50
:1048D0009FED2C5ADFED2C5A9FED2C6A9FED2C7A20
:1048E000E7EEA23ABDEC048BE3EEA74AA7EE834ABB
:1048F000E4EEA76AA4EE275AE6EEA75AA5EE276AC9
:10490000A5EEA77AF7EE006AE6EE276A67EE277A49
:1049100087EEA67AA0EE070A38BD10EE103A23F40F
:104920007F6323F00F0307EE903AB1EE676AA6EEBD
:10493000278A77EE807AC8EE895A88EE275A9FED4B
:10494000187ADFED187AF0EE006AA5EE667A30EE9E
:10495000000AB0EE675AA6EE265A90EE257A37EE98
:10496000450A37EEC00A8AE7CAF2497108EF1138E2
:10497000047F4F3A2EC69D3D461124BD613330BFA2
:10498000A80A4E3E2D57014090B0A6BE39D119C09D
:10499000ABAA2A3E9999793F2EBD3B33DB0FC93F25
:1049A0002EBD3BB3DB0F493F10B582B0CDED010A00
:1049B000019B23F00042B2F1FF4FF0EE407A18DC89
:1049C00010EE100A20F00041B1F1FF4F11DCB3F1FD
:1049D0007E5F3DD09C1704F0020444EAD07471B9A4
:1049E000022C4AD09FED440A032C18BFB0EE670A90
:1049F00003E09DED017A37EE270A02B010BD42B9FF
:104A00009FED3E0ADFED3E7A0028B8BFB0EE670AA0
:104A1000F3E7B2F1FF4F20D0B1F1FF4F30D08A1A47
:104A2000D2153C2A35DC002B36DA3C3234DA9FEDE5
:104A3000350A012C42D0022C37D0002CDDD0DFED1E
:104A4000327A9FED327A70EE277A37EEC70AD4E7D2
:104A500002B0BDE8104000F073B8B1F1FF4F34D0A0
:104A6000022C0AD0032C3DD0DFED297A9FED250AD8
:104A7000012C08BFB0EE670ABFE79FED240ABCE730
:104A8000DFED1E7A9FED1E0A0028A8BFB0EE670A70
:104A9000B3E79FED1A0ACCE79DED010A87EE800A85
:104AA00000F020F900F04CF8C3E7DFED177A9FED36
:104AB000177A70EE277A37EE670A9EE710EE103A03
:104AC00003F1004300EE103A97E7022C10D0032CBC
:104AD0000BD0DFED107A9FED100A012C08BFB0EE6D
:104AE000670A8AE79FED040A87E79FED0C0A84E7CF
:104AF0009FED0B0A81E700BFDB0F49C0DB0FC93F09
:104B0000DB0FC9BF000000002EBDBB33DB0F4940E7
:104B100000000080DB0F49BFDB0F493FE4CB16C02C
:104B2000E4CB1640B1EEC00A704700BF00207047CA
:104B30009FED010B704700BF000000000000F87FF0
:104B400038B510EE105A25F00044B4F1A14FF0EE44
:104B5000407A0BDBB4F1FF4F58DCDFED4F7A9FED6D
:104B60004F0A002DD8BFB0EE670A38BD4C4B9C42AF
:104B70005BDCB4F1445F4CDB4FF0FF3367EEA76AB8
:104B8000DFED481ADFED482A9FED482A9FED483AAD
:104B9000DFED483A9FED484ADFED484A9FED485A1D
:104BA000DFED485A9FED480A9FED486A26EEA67A47
:104BB0005A1CE7EE212AA7EE023AE2EE873AA3EE6C
:104BC000074AE3EE874AA4EE075AE4EE875AA5EEB9
:104BD000070AA5EE876A20EE070AA6EE260A20EE4F
:104BE000270A37D03A493B4A9B00194491ED007A95
:104BF00030EE470A134430EE670AD3ED007A002DF9
:104C000037EEC00AB1DAB1EE400A38BD30EE000A24
:104C100038BD9FED317A30EE077AF7EE006AB4EED8
:104C2000E67AF1EE10FAA7DD38BD00F05BF82B4B09
:104C30009C4212DCA3F5D0039C4223DCF0EE007A08
:104C4000BFEE007AA0EE277A002330EE270AC7EEE7
:104C5000007A93E737EEC00A38BD214B9C420BDC4B
:104C6000F7EE087AB7EE007AA0EE277A022330EE4C
:104C7000670AC0EE077A81E7BFEE007AC7EE007AD6
:104C800003237BE7F7EE007A30EE677A30EE270AEF
:104C90000123C7EE007A71E7DB0FC9BFDB0FC93F05
:104CA000FFFFDF3ED769853C59DA4B3D21A215BD98
:104CB0006BF16EBD356B883D95879DBD6E2EBA3DFF
:104CC000388EE3BD2549123ECDCC4CBEABAAAA3EE0
:104CD0004874000838740008CAF24971FFFF973F12
:104CE000FFFF1B4010EE103A23F0004300EE103A95
:104CF000704700BF014B1868704700BF4C00002090
:104D000070B50D4E0D4CA41BA4100025A54209D171
:104D10000B4E0C4C02F07EF8A41BA4100025A542FB
:104D200005D170BD56F8253098470135EEE756F8A5
:104D3000253098470135F2E7C0760008C0760008B4
:104D4000C0760008C476000802440346934200D1AE
:104D5000704703F8011BF9E72DE9FF4755EC104BAD
:104D60000D9FDDF830A0002D0E4691461946B8BFC4
:104D700022462B4627F02007BBBF05F100431D4606
:104D800000232D23B8BF1446462F0B7004D0452FA7
:104D900000D10136022100E0032103AB019302ABF5
:104DA00000933246534645EC104B00F0F1FC472F80
:104DB000804602D119F0010F26D0462F08EB0609D4
:104DC00011D198F80030302B0AD100220023204660
:104DD0002946FCF74BF818B9C6F10106CAF800607D
:104DE000DAF8003099440022002320462946FCF7D7
:104DF0003DF838B93022039B4B4505D2591C03912D
:104E00001A70F8E7CDF80C90039B0E9AA3EB0803F9
:104E10004046136004B0BDE8F087F7B500290446AA
:104E2000BABF49422D232B23092904F8022B4370D2
:104E300020DD0DF107031F460A2691FBF6F506FB60
:104E400015113031092D03F8011C03F1FF322946F9
:104E500009DC3031023B02F8011CBB42224604D37C
:104E6000101A03B0F0BD1346E7E713F8012B04F85E
:104E7000012BF2E7302319448370021DC170EFE764
:104E80002DE9F04F8DB00C46DDF8588016461F46D0
:104E9000054601F035FA036804931846FBF736FF20
:104EA00000230A93D8F800300590073323F0070356
:104EB00003F1080294F818A0D4F800B0C8F8002054
:104EC000D3E90023C4E91223D4E9128929F000436D
:104ED0000793CDF818804FF0FF32A74BDDE90601AC
:104EE000FBF7F6FF70BB4FF0FF32A34BDDE9060185
:104EF000FBF7D0FF30BB0022002340464946FBF7BA
:104F0000BFFF10B12D2384F843309C4A9C4BBAF16B
:104F1000470F8CBF9046984603232BF00402236171
:104F200022604FF00009009733460BAA214628461D
:104F300000F0E6F9013040F08D804FF0FF300DB009
:104F4000BDE8F08F42464B4640464946FBF7C0FF5E
:104F500010B18C4A8C4BDAE761684B1C4BF48062D1
:104F60000AA83ED1062363600023CDE9020309AB02
:104F7000009349EC108B0DF123032260CDF804A0BF
:104F800061682846FFF7E8FE0AF0DF03472B8046FA
:104F900009D1099BD81C02DB6268934247DDAAF164
:104FA000020A5FFA8AFABAF1650F099924D8013921
:104FB000524604F150000991FFF72FFF0A9A131887
:104FC000012A8146236102DC2268D10701D5013321
:104FD00023619DF82330002BA5D02D2384F8433086
:104FE000A1E7BAF1670F00F07781BAF1470FBBD1A3
:104FF0000029B9D10123B6E7BAF1660F19D100290A
:1050000063680CDD216113B92268D20702D5013330
:105010000B442361099BA3654FF00009D9E713B93D
:105020002268D00701D50233F3E70123F1E74FF0FF
:10503000670ADDE90932934205DB22682361D10763
:10504000E8D50133E5E7002BD4BFC3F10203012308
:105050001344DEE723685A0507D4236942463146E4
:105060002846B84701302BD167E7BAF1650F40F207
:10507000DC8000220023D4E91201FBF7F7FE0028B0
:1050800033D00123414A31462846B84701303FF426
:1050900054AFDDE909239A4202DB2368D8070FD514
:1050A000DDE9042331462846B84701303FF445AFD7
:1050B0004FF0000804F11A090A9B013B434509DC43
:1050C00023689B0700F10381E0680B9B9842B8BFFF
:1050D000184634E701234A4631462846B84701308E
:1050E0003FF42BAF08F10108E6E7099B002B2BDC0E
:1050F0000123264A31462846B84701303FF41DAF08
:10510000099B23B90A9B13B92368D907D8D5DDE9D0
:10511000042331462846B84701303FF40EAF4FF024
:10512000000904F11A0A099B5B424B4501DC0A9B0A
:1051300094E70123524631462846B84701303FF4F0
:10514000FCAE09F10109EEE70A9AA36D9A42A8BFE5
:105150001A46002A914607DD134631464246284644
:10516000B84701303FF4E9AE04F11A034FF0000BE9
:1051700029EAE979069315E0FFFFEF7F5C740008E8
:1051800058740008647400086074000868740008AB
:105190000123069A31462846B84701303FF4CDAE88
:1051A0000BF1010BD4F858A0AAEB09035B45EFDC27
:1051B000DDE909239A42D04415DB2368DA0712D4CB
:1051C0000A9B0999A3EB0A02A3EB010A9245A8BF27
:1051D0009246BAF1000F0EDC4FF000082AEAEA7A94
:1051E00004F11A0919E0DDE9042331462846B847DD
:1051F0000130E5D1A1E65346424631462846B8473C
:105200000130E9D199E601234A4631462846B8479C
:1052100001303FF492AE08F10108DDE909239B1A41
:10522000A3EB0A034345EEDC4AE70A9A012A01DCB4
:10523000DB073AD50123424631462846B8470130BC
:105240003FF47BAEDDE9042331462846B847013000
:1052500008F101083FF471AE0A9B002203F1FF3A06
:10526000D4E912010023FBF701FEC8B953464246B8
:1052700031462846B84701300ED15EE6012352463A
:1052800031462846B84701303FF457AE08F10108CF
:105290000A9B013B4345F1DC4B4604F15002DEE63C
:1052A0004FF0000804F11A0AF2E70123DFE70123B7
:1052B0004A4631462846B84701303FF43EAE08F131
:1052C0000108E3680B9A9B1A4345F0DCFCE64FF0BB
:1052D000000804F11909F4E700293FF48BAE00231C
:1052E000CDE9020309AB009349EC108B2260CDF8A5
:1052F00004A00DF123032846FFF72EFD804648E663
:105300002DE9F04791461F468A680B69DDF8208039
:105310009342B8BF1346C9F8003091F843200646BF
:105320000C4612B10133C9F800302368990642BF18
:10533000D9F800300233C9F80030256815F00605A9
:1053400007D104F1190AE368D9F800209B1AAB428F
:1053500028DC94F843302268003318BF01239206FA
:105360002DD404F1430239463046C047013020D0E5
:105370002368E568D9F8002003F00603042B08BF72
:10538000AD1AA36822690CBF25EAE5750025934292
:10539000C4BF9B1AED184FF000091A344D451AD1BD
:1053A000002008E00123524639463046C04701300C
:1053B00003D14FF0FF30BDE8F0870135C3E7E118B6
:1053C0005A1C302081F84300224494F8451082F89A
:1053D00043100233C5E70123224639463046C04711
:1053E0000130E6D009F10109D8E700002DE9F043CA
:1053F00001F1430C0C46097E85B06E29174606461E
:1054000098460C9A00F0B38022D8632936D00AD887
:10541000002900F0B980582900F0838004F142058A
:1054200084F8421032E0642901D06929F6D120685D
:105430001368050603F104012AD51B681160002BCF
:1054400003DA2D225B4284F843206F480A2239E0B8
:10545000732900F09D8008D86F2920D07029DDD1F4
:10546000236843F02003236003E0752917D07829CF
:10547000D4D1782384F84530644855E01368191D69
:105480001B68116004F1420584F8423001238CE06E
:105490001B68116010F0400F18BF1BB2CFE71368F4
:1054A0002568181D1060280601D51B6802E06806F3
:1054B000FBD51B8854486F2914BF0A2208220021FB
:1054C00084F843106568A560002DC0F295802168BE
:1054D00021F004012160002B3DD1002D40F08E8091
:1054E0006546082A0BD12368DB0708D52369626863
:1054F0009A42DEBF302305F8013C05F1FF35ACEBE5
:1055000005032361CDF800803B4603AA21463046BF
:10551000FFF7F6FE01304DD14FF0FF3005B0BDE88A
:10552000F083394884F84510136821681D1D1B68F5
:1055300015600A060BD5CA0744BF41F0200121605F
:105540001BB9226822F0200222601022B7E74D0624
:1055500048BF9BB2EFE76546B3FBF2F102FB1133A4
:10556000C35C05F8013D0B460029F5D1B9E7136886
:1055700025686169181D106028061B6801D519602F
:1055800002E06A06FBD51980002323616546B9E76E
:105590001368191D11601D68626800212846FBF719
:1055A000BFFB08B1401B606063682361002384F87F
:1055B0004330A7E723692A4639463046C0470130C1
:1055C000AAD023689B0713D4E068039B9842B8BF16
:1055D0001846A3E701234A4639463046C047013002
:1055E0009AD00135E368039A9B1AAB42F2DCEBE7F1
:1055F000002504F11909F5E7002BACD1037884F8F4
:10560000423004F142056CE76A7400087B740008BC
:105610000CB430B5174B0C1E9DB01D6808DA8B23F7
:105620002B604FF0FF301DB0BDE8304002B0704736
:105630004FF40273ADF8143014BF04F1FF33234666
:10564000049307934FF6FF7302900690ADF816305F
:10565000209A21AB02A92846019301F05DFA431C70
:10566000BCBF8B232B60002CDDD0029B00221A7064
:10567000D9E700BF4C0000202DE9F74F03690C6902
:10568000A3428046C0F28280013C01F114074FEA38
:10569000840C00F1140657F8245056F8240006EB49
:1056A0000C03013507EB0C090193B0FBF5F595B33D
:1056B0004FF0000A3846B646D34650F8042B93B252
:1056C00005FB03A34FEA134A9BB2ABEB0303120C97
:1056D000DEF800B005FB02A213FA8BF34FEA124A80
:1056E0001FFA82FBDEF80020CBEB124202EB2342D2
:1056F0009BB243EA024381454FEA224B4EF8043BFA
:10570000DBD256F80C3033B9019B043B9E421A465B
:1057100030D3C8F81040404601F028F8002825DBB7
:10572000013530464FF0000C57F8042BD0F800E05C
:1057300093B2ACEB0303120C13FA8EF3C2EB1E42CE
:1057400002EB23429BB243EA0243B9454FEA224CA3
:1057500040F8043BE8D256F8242006EB84032AB92B
:10576000043B9E421A460BD3C8F81040284603B0AB
:10577000BDE8F08F1268043B002ACAD1013CC5E79E
:105780001268043B002AEFD1013CEAE70020EEE773
:105790002DE9F04F57EC106B97B0456A069104461F
:1057A0000B921293DDF88080CDE900673DB910209F
:1057B00000F0B4FD6062C0E901550560C560636A30
:1057C000196851B15A684A60012393408B602046A2
:1057D00000F0EBFD636A00221A603B1EBBBF23F0A2
:1057E0000043019300230122ACBFC8F80030C8F881
:1057F0000020AF4BDDF8048033EA080314D1129A7D
:1058000042F20F731360009B23B9C8F31300002802
:1058100000F04285219BDFF8ACB2002B00F04485FC
:105820000BF1030300F03EBDDDE900670022002319
:1058300030463946FBF71AFB814668B1129A0123BC
:105840001360219B002B00F024859A4B219A03F1D1
:10585000FF3B136000F028BD14AA15A947EC106B9C
:10586000204600F0FAFFC8F30A550490002D7CD0C2
:10587000C7F3130343F07F5BB2464BF4401BA5F222
:10588000FF35CDF84C9000228B4B50465946FAF725
:10589000A3FC81A3D3E90023FAF756FE80A3D3E942
:1058A0000023FAF79BFC064628460F46FAF7E2FD6E
:1058B0007DA3D3E90023FAF747FE02460B463046A4
:1058C0003946FAF78BFC06460F46FBF717FB00221A
:1058D0008246002330463946FBF7D2FA48B150469B
:1058E000FAF7C8FD32463B46FBF7C0FA08B90AF1A1
:1058F000FF3ABAF1160F59D8704901EBCA01DDE938
:105900000023D1E90001FBF7D9FA002850D00AF1B1
:10591000FF3A00230F93149B5D1BB5F1010849BFAB
:10592000C5F10103002305934FF0000858BF05930C
:10593000BAF1000F3EDB0023D044CDF838A0079326
:10594000069B092B00F29080052BC4BF043B0693F5
:10595000069BA3F10203CCBF00250125032B00F217
:105960008F80DFE803F07D7F3171DDE914531D4442
:1059700005F23240202813DDC0F14000009B08FAF8
:1059800000F805F2124023FA00F048EA0000FAF7A6
:1059900061FD01238246A1F1F87B013D139372E77B
:1059A000009BC0F1200003FA00F0F0E70123B1E70B
:1059B0000F90B0E7059BA3EB0A030593CAF1000320
:1059C000079300230E93BBE701230A930B9B002B45
:1059D00059DD02939946666A00227260042202F140
:1059E00014009842716853D9204600F0AAFC636AFB
:1059F0003060B9F10E0FD3F800B000F2E680002D50
:105A000000F0E3809DED007BBAF1000F8DED107B7F
:105A100074DD2A4A0AF00F0302EBC30393ED007B07
:105A20004FEA2A16F0068DED087B65D5244BDDE99B
:105A30001001D3E90823FAF7B1FECDE9000106F021
:105A40000F0603251E4F4CE001230A930B9B534482
:105A500003F1010902934B46012BB8BF0123BAE7BA
:105A60000023B2E70023F0E70125002306930A95FF
:105A70004FF0FF3302939946002212230B92AAE7BC
:105A800001230A93F4E70123029399461A46F5E7A6
:105A9000013171605200A2E761436F63A787D23F73
:105AA000B3C8608B288AC63FFB799F501344D33F0D
:105AB0000000F07F697400080000F83FC874000817
:105AC000A074000895740008F10708D5DDE9080105
:105AD000D7E90023FAF738FDCDE908010135761042
